{
  "contractName": "Conference",
  "abi": [
    {
      "constant": true,
      "inputs": [
        {
          "name": "",
          "type": "address"
        }
      ],
      "name": "registrantsPaid",
      "outputs": [
        {
          "name": "",
          "type": "uint256"
        }
      ],
      "payable": false,
      "stateMutability": "view",
      "type": "function"
    },
    {
      "constant": true,
      "inputs": [],
      "name": "organizer",
      "outputs": [
        {
          "name": "",
          "type": "address"
        }
      ],
      "payable": false,
      "stateMutability": "view",
      "type": "function"
    },
    {
      "constant": true,
      "inputs": [],
      "name": "quota",
      "outputs": [
        {
          "name": "",
          "type": "uint256"
        }
      ],
      "payable": false,
      "stateMutability": "view",
      "type": "function"
    },
    {
      "constant": true,
      "inputs": [],
      "name": "numRegistrants",
      "outputs": [
        {
          "name": "",
          "type": "uint256"
        }
      ],
      "payable": false,
      "stateMutability": "view",
      "type": "function"
    },
    {
      "inputs": [],
      "payable": false,
      "stateMutability": "nonpayable",
      "type": "constructor"
    },
    {
      "anonymous": false,
      "inputs": [
        {
          "indexed": false,
          "name": "_from",
          "type": "address"
        },
        {
          "indexed": false,
          "name": "_amount",
          "type": "uint256"
        }
      ],
      "name": "Deposit",
      "type": "event"
    },
    {
      "anonymous": false,
      "inputs": [
        {
          "indexed": false,
          "name": "_to",
          "type": "address"
        },
        {
          "indexed": false,
          "name": "_amount",
          "type": "uint256"
        }
      ],
      "name": "Refund",
      "type": "event"
    },
    {
      "constant": false,
      "inputs": [],
      "name": "buyTicket",
      "outputs": [
        {
          "name": "success",
          "type": "bool"
        }
      ],
      "payable": true,
      "stateMutability": "payable",
      "type": "function"
    },
    {
      "constant": false,
      "inputs": [
        {
          "name": "newquota",
          "type": "uint256"
        }
      ],
      "name": "changeQuota",
      "outputs": [],
      "payable": false,
      "stateMutability": "nonpayable",
      "type": "function"
    },
    {
      "constant": false,
      "inputs": [
        {
          "name": "recipient",
          "type": "address"
        },
        {
          "name": "amount",
          "type": "uint256"
        }
      ],
      "name": "refundTicket",
      "outputs": [],
      "payable": false,
      "stateMutability": "nonpayable",
      "type": "function"
    },
    {
      "constant": false,
      "inputs": [],
      "name": "destroy",
      "outputs": [],
      "payable": false,
      "stateMutability": "nonpayable",
      "type": "function"
    }
  ],
  "bytecode": "0x6060604052341561000f57600080fd5b336000806101000a81548173ffffffffffffffffffffffffffffffffffffffff021916908373ffffffffffffffffffffffffffffffffffffffff1602179055506101f460038190555060006002819055506106428061006f6000396000f30060606040526004361061008e576000357c0100000000000000000000000000000000000000000000000000000000900463ffffffff16806313381fbf1461009357806361203265146100e0578063705099b91461013557806383197ef014610177578063a977c71e1461018c578063cebe09c9146101af578063ec3a6f73146101d8578063edca914c14610201575b600080fd5b341561009e57600080fd5b6100ca600480803573ffffffffffffffffffffffffffffffffffffffff16906020019091905050610223565b6040518082815260200191505060405180910390f35b34156100eb57600080fd5b6100f361023b565b604051808273ffffffffffffffffffffffffffffffffffffffff1673ffffffffffffffffffffffffffffffffffffffff16815260200191505060405180910390f35b341561014057600080fd5b610175600480803573ffffffffffffffffffffffffffffffffffffffff16906020019091908035906020019091905050610260565b005b341561018257600080fd5b61018a610432565b005b341561019757600080fd5b6101ad60048080359060200190919050506104c3565b005b34156101ba57600080fd5b6101c2610529565b6040518082815260200191505060405180910390f35b34156101e357600080fd5b6101eb61052f565b6040518082815260200191505060405180910390f35b610209610535565b604051808215151515815260200191505060405180910390f35b60016020528060005260406000206000915090505481565b6000809054906101000a900473ffffffffffffffffffffffffffffffffffffffff1681565b60008060009054906101000a900473ffffffffffffffffffffffffffffffffffffffff1673ffffffffffffffffffffffffffffffffffffffff163373ffffffffffffffffffffffffffffffffffffffff161415156102bd5761042d565b81600160008573ffffffffffffffffffffffffffffffffffffffff1673ffffffffffffffffffffffffffffffffffffffff16815260200190815260200160002054141561042c57309050818173ffffffffffffffffffffffffffffffffffffffff163110151561042b578273ffffffffffffffffffffffffffffffffffffffff166108fc839081150290604051600060405180830381858888f19350505050151561036757600080fd5b6000600160008573ffffffffffffffffffffffffffffffffffffffff1673ffffffffffffffffffffffffffffffffffffffff16815260200190815260200160002081905550600260008154809291906001900391905055507fbb28353e4598c3b9199101a66e0989549b659a59a54d2c27fbb183f1932c8e6d8383604051808373ffffffffffffffffffffffffffffffffffffffff1673ffffffffffffffffffffffffffffffffffffffff1681526020018281526020019250505060405180910390a15b5b5b505050565b6000809054906101000a900473ffffffffffffffffffffffffffffffffffffffff1673ffffffffffffffffffffffffffffffffffffffff163373ffffffffffffffffffffffffffffffffffffffff1614156104c1576000809054906101000a900473ffffffffffffffffffffffffffffffffffffffff1673ffffffffffffffffffffffffffffffffffffffff16ff5b565b6000809054906101000a900473ffffffffffffffffffffffffffffffffffffffff1673ffffffffffffffffffffffffffffffffffffffff163373ffffffffffffffffffffffffffffffffffffffff1614151561051e57610526565b806003819055505b50565b60035481565b60025481565b600060035460025410151561054d5760009050610613565b34600160003373ffffffffffffffffffffffffffffffffffffffff1673ffffffffffffffffffffffffffffffffffffffff168152602001908152602001600020819055506002600081548092919060010191905055507fe1fffcc4923d04b559f4d29a8bfc6cda04eb5b0d3c460751c2402c5c5cc9109c3334604051808373ffffffffffffffffffffffffffffffffffffffff1673ffffffffffffffffffffffffffffffffffffffff1681526020018281526020019250505060405180910390a1600190505b905600a165627a7a72305820f9a9c90c14f527b9be1f352721053dd970ed0d8326b5b4243d7a977d95da652a0029",
  "source": "pragma solidity ^0.4.19;\n\ncontract Conference {\n  address public organizer;\n  mapping (address => uint) public registrantsPaid;\n  uint public numRegistrants;\n  uint public quota;\n\n  event Deposit(address _from, uint _amount);  // so you can log these events\n  event Refund(address _to, uint _amount); \n\n  function Conference() public{ // Constructor\n    organizer = msg.sender;\n    quota = 500;\n    numRegistrants = 0;\n  }\n  function buyTicket() public payable returns (bool success) {\n    if (numRegistrants >= quota) { return false; }\n    registrantsPaid[msg.sender] = msg.value;\n    numRegistrants++;\n    Deposit(msg.sender, msg.value);\n    return true;\n  }\n  function changeQuota(uint newquota) public {\n    if (msg.sender != organizer) { return; }\n    quota = newquota;\n  }\n  function refundTicket(address recipient, uint amount) public {\n    if (msg.sender != organizer) { return; }\n    if (registrantsPaid[recipient] == amount) { \n      address myAddress = this;\n      if (myAddress.balance >= amount) { \n        recipient.transfer(amount);\n        registrantsPaid[recipient] = 0;\n        numRegistrants--;\n        Refund(recipient, amount);\n      }\n    }\n  }\n  function destroy() public{ // so funds not locked in contract forever\n    if (msg.sender == organizer) { \n      selfdestruct(organizer); // send funds to organizer\n    }\n  }\n}\n",
  "sourcePath": "/Users/neo/ethereum/Conference/contracts/Conference.sol",
  "compiler": {
    "name": "solc",
    "version": "0.4.19+commit.c4cbbb05.Emscripten.clang"
  },
  "schemaVersion": "1.0.1",
  "updatedAt": "2018-03-01T00:45:07.149Z"
}